:100000000C9468000C9490000C9490000C94900058
:100010000C9490000C9490000C9490000C94470A5F
:100020000C9490000C9490000C9490000C94900010
:100030000C9490000C9490000C9490000C94900000
:100040000C94FD090C9490000C9490000C9490007A
:100050000C9490000C9490000C9490000C949000E0
:100060000C94A30A0C9490000000000024002700C8
:100070002A000000000023002600290000000008DC
:10008000000201000003040700000000000000005F
:10009000010204081020408001020408102001021F
:1000A0000408102000000000250028002B00040494
:1000B0000404040404040202020202020303030310
:1000C0000303021F1C1F1E1F1E1F1F1E1F1EC20B0D
:1000D00011241FBECFEFD8E0DEBFCDBF22E0A2E9E2
:1000E000B1E001C01D92AB3AB207E1F711E0A0E028
:1000F000B1E0E8EBF9E202C005900D92A239B10738
:10010000D9F710E0C8E6D0E004C02197FE010E94B4
:10011000AF13C736D107C9F70E94F00B0C94DA145D
:100120000C9400008091A5029091A6028230910566
:1001300038F0880F991F880F991F05970197F1F7DD
:10014000089508950895833081F028F4813099F05E
:100150008230A9F008958730A9F08830C9F0843042
:10016000B1F4809180008F7D03C0809180008F77F3
:1001700080938000089584B58F7784BD089584B5F9
:100180008F7DFBCF8091B0008F778093B000089572
:100190008091B0008F7DF9CFCF93DF93282F30E08F
:1001A000F901E458FF4F8491F901E057FF4FD491D2
:1001B000F901E255FF4FC491CC23A1F081110E94B7
:1001C000A300EC2FF0E0EE0FFF1FEE58FF4FA591BC
:1001D000B491EC91ED2381E090E009F480E0DF91AF
:1001E000CF91089580E090E0FACF1F93CF93DF93F3
:1001F000282F30E0F901E458FF4F8491F901E057CE
:10020000FF4FD491F901E255FF4FC491CC23A9F0DF
:10021000162F81110E94A300EC2FF0E0EE0FFF1FBC
:10022000EC55FF4FA591B4918FB7F894EC91111153
:1002300008C0D095DE23DC938FBFDF91CF911F9153
:100240000895DE2BF8CFCF93DF9390E0FC01E057C9
:10025000FF4F249182559F4FFC0184918823C9F060
:1002600090E0880F991FFC01E859FF4FA591B491C8
:10027000FC01EC55FF4FC591D49161110DC09FB7A2
:10028000F8948C91209582238C938881282328834D
:100290009FBFDF91CF910895623051F49FB7F894DA
:1002A0003C91822F809583238C93E8812E2BEFCF76
:1002B0008FB7F894EC912E2B2C938FBFEACFCF936E
:1002C000DF93C2EAD2E061E089810E9423010E94AB
:1002D000920060E088810E9423010E94920060E009
:1002E00089810E942301DF91CF910C9492000F939A
:1002F0001F93CF93DF93D82FC8E061E08091A202D3
:100300000E9423010E9492000D2F10E060E0D0FFB8
:1003100061E08091A3020E9423010E94920060E0AC
:100320008091A2020E9423010E94920015950795D8
:10033000D02FC15011F761E08091A2020E942301E9
:1003400060E08091A3020E9423010E94920060E07D
:100350008091A2020E9423010E9492008091A30238
:100360000E94CC00C82F811105C061E08091A302DA
:100370000E9423010E94920061E08091A2020E94EB
:1003800023010E94920081E0C11101C080E0DF9151
:10039000CF911F910F91089561E08091A3020E9477
:1003A00023010C949200EF92FF920F931F93CF932F
:1003B000DF93182FE92E062FC42F0E94CC0180E472
:1003C0000E9477010E945F010E94CC0180EC8C0F9B
:1003D0000E947701F12EC12FDE2D89910E947701B5
:1003E0008C2F8F198017C8F30E945F010E94CC01E7
:1003F0008091A4028F7080580E947701DF91CF9185
:100400001F910F91FF90EF900C945F019F92AF921C
:10041000BF92CF92DF92EF92FF920F931F93CF93F1
:10042000DF9300D000D0CDB7DEB7F62EE92EEE1C5C
:10043000EE24EE1C0097E9F4411140C019821A82A3
:100440001B828FE38C8340E064E0CE0101960E9422
:10045000D3010F900F900F900F90DF91CF911F91CC
:100460000F91FF90EF90DF90CF90BF90AF909F9053
:1004700008959C0197FF03C03195219531098E01A4
:100480000F5F1F4F5E0183E0A81AB108F8018AE0F0
:10049000C82ED12C90E4992EC901B6010E944613B2
:1004A000582F81110EC02115310559F4411109C091
:1004B0001382EE2081F09382E12C0DC030E020E029
:1004C000DECF80599E4FDC018C918383511103C094
:1004D0002115310571F3C901B6010E9446139B0134
:1004E0003197EA15FB05C1F6FF2009F4ACCF21E0F6
:1004F00030E02C0F3D1F2C5F3F4FF80191918F0191
:1005000031978F2D8078892B8083FF0C021713077A
:10051000A1F799CFCF93DF9300D000D0CDB7DEB74E
:1005200019821A821B821C8240E064E0CE0101968F
:100530000E94D3010F900F900F900F90DF91CF91F9
:1005400008958F929F92AF92BF92CF92DF92EF92D7
:10055000FF920F931F93CF938C016A017B018091CF
:1005600045018D3079F08F3F09F442C0CF911F9142
:100570000F91FF90EF90DF90CF90BF90AF909F9042
:100580008F900895E2ECF0E0C491C7FDEFCF61E0F9
:100590008DE00E942301C11141C0980150E040E06C
:1005A00068E478EE81E090E00E94901349015A01DE
:1005B00081E0881A9108A108B10885B5887F836019
:1005C00085BD2FEF3FEFA901C114D104E104F1046F
:1005D00009F4EFC0D801AA0FBB1FA70196010E9422
:1005E000201328EE33E040E050E00E946E13DAC0A2
:1005F0008DE080934501E2ECF0E0C491CF3F09F437
:10060000B5CFC13009F455C0D8F1C23009F46FC07C
:10061000C7FDACCF61E08DE00E942301980150E05E
:1006200040E0C23009F085C060E970ED83E090E001
:100630000E94901349015A0181E0881A9108A1088B
:10064000B1088091B100887F83608093B1002FEF63
:100650003FEFA901C114D104E104F10409F0BACFBC
:100660008092B30020931602309317024093180231
:10067000509319028091700082608093700076CF51
:1006800014BC15BC84B5826084BD85B5816085BD10
:10069000EBEBF0E0E491F0E0EE0FFF1FEC55FF4FC5
:1006A00085919491EDE9F0E0E491E0931502C0E0CA
:1006B0006ECF10928000109281008091810088603E
:1006C0008093810080918100816080938100EBEBB9
:1006D000F0E0E491F0E0EE0FFF1FEC55FF4F859145
:1006E0009491EDE9F0E0E491E093140250CF109280
:1006F000B0001092B1008091B00082608093B00091
:100700008091B10081608093B100EBEBF0E0E49167
:10071000F0E0EE0FFF1FEC55FF4F85919491909301
:10072000130280931202EDE9F0E0E491E0931102EC
:100730002ECF60E072E18AE790E00E9490134901B9
:100740005A0181E0881A9108A108B108C13009F561
:1007500080918100887F8160809381002FEF3FEF3F
:10076000A901C114D104E104F10409F033CF90923E
:1007700089008092880020931A0230931B024093D4
:100780001C0250931D0280916F00826080936F0065
:10079000EDCE2FEF3FEFA901C114D104E104F10424
:1007A00009F018CFC13019F3C23009F459CFC11183
:1007B000DDCE87BC20931E0230931F02409320029F
:1007C0005093210280916E00826080936E00CECEA5
:1007D0003FB7F8948091090290910A02A0910B0210
:1007E000B0910C0226B5A89B05C02F3F19F00196C9
:1007F000A11DB11D3FBFBA2FA92F982F8827BC017B
:10080000CD01620F711D811D911D42E0660F771FA2
:10081000881F991F4A95D1F708958F929F92AF92A2
:10082000BF92CF92DF92EF92FF924B015C010E9448
:10083000E8036B017C010E94E8036C197D098E09B5
:100840009F09683E734081059105A8F321E0821A53
:100850009108A108B10888EEC80E83E0D81EE11CFB
:10086000F11C81149104A104B10429F7FF90EF90C9
:10087000DF90CF90BF90AF909F908F9008952FB74B
:10088000F8946091050270910602809107029091A0
:1008900008022FBF08959091450189130BC0E2EC27
:1008A000F0E0E4919FEF90934501E13049F028F0AA
:1008B000E23061F060E00C94F50010926E00FACF27
:1008C00090916F009D7F90936F00F4CF9091700096
:1008D0009D7F9093700091E09093B0009091B10053
:1008E000987F94609093B1001092B300E3CF209171
:1008F000B301260F3327331F21323105ECF4209149
:100900006C02FC0190E080E0243069F082E0089500
:10091000A091B3012191AC014D565E4FA40FB52FAC
:10092000B11D2C930196861798F38091B301680F3F
:100930006093B30180E0089581E0089510926C0205
:1009400081E080936B021092460261E082E10E9496
:10095000F50061E083E10E94F500E9EBF0E08081C1
:100960008E7F808380818D7F808388E48093B80030
:1009700085E48093BC000895109225021092240211
:1009800010927302109295020E949E0481EA90E0F8
:100990009093100280930F0282EA90E090930E02EF
:1009A00080930D020895CF93DF9391E0909392018D
:1009B0008823B9F0C091B800D091BA008091BC00F2
:1009C0008A7B8093BC0060E082E10E94F50060E0D9
:1009D00083E10E94F5000E949E04D093BA00C09368
:1009E000B800DF91CF9108958F929F92AF92BF92FE
:1009F000CF92DF92EF92FF920F931F93CF93DF93EB
:100A0000D0919502D13208F0D7C0182FC09194022E
:100A10000E94E8036B017C0180916C0281116BC024
:100A200082E080936C0210936B028FEF80936A02D6
:100A300010926902D0936802A4E7B2E0E8E4F2E021
:100A400080E0D81391C01092470280914702CC0FEA
:100A5000C82BC093470280914602813009F088C0BC
:100A6000109246020E94E8036B017C0180914702CC
:100A70008093BB0080916E0290916F02A0917002F2
:100A8000B0917102892B8A2B8B2BA1F00E94E80375
:100A900000916E0210916F022091700230917102EC
:100AA0006C197D098E099F09061717072807390752
:100AB00008F442C08091BC0083FDD8CF85EC8093C0
:100AC000BC000E94E8036B017C0180916C028230C3
:100AD00009F450C080916A028F3F09F46FC0809181
:100AE0006A02803209F46CC080916A02803309F492
:100AF00069C084E026C080916E0290916F02A0913F
:100B00007002B0917102892B8A2B8B2B09F484CF50
:100B10000E94E80380906E0290906F02A090700295
:100B2000B09071026C197D098E099F09861697068F
:100B3000A806B90608F070CF80916D020E94D30418
:100B400085E0109273021092950210927202DF916A
:100B5000CF911F910F91FF90EF90DF90CF90BF90BA
:100B6000AF909F908F9008959D9191938F5F69CFE3
:100B700085EEA5CF80916E0290916F02A0917002D8
:100B8000B0917102892B8A2B8B2B09F49ECF0E9486
:100B9000E80300916E0210916F0220917002309173
:100BA00071026C197D098E099F090617170728071E
:100BB000390708F08ACFC0CF81E0C3CF80E0C1CF32
:100BC00082E0BFCF83E0BDCFCF93DF93EC018B8179
:100BD0008823A1F0888191E090937202809394021F
:100BE000109273021092950281E00E94F40491E049
:100BF000811190E0892FDF91CF9108950E94BC046C
:100C000081E08B83CE010E94E405982F8111E2CF11
:100C1000F1CF0895E091250280912402E81730F485
:100C2000F0E0EA5DFD4F808190E008958FEF9FEF47
:100C3000089590912502809124022FEF3FEF98179D
:100C400048F4E92FF0E0EA5DFD4F208130E09F5F3E
:100C500090932502C9010895809124029091250264
:100C6000891B990B0895CF92DF92EF92FF920F9319
:100C70001F93CF93DF937C01CB018A0120917202F5
:100C8000222389F0EB016B01C40ED51ECC15DD05C6
:100C900069F06991D701ED91FC910190F081E02D0F
:100CA000C7010995F3CF642F0E947704C801DF9133
:100CB000CF911F910F91FF90EF90DF90CF9008950B
:100CC000CF93DF931F92CDB7DEB769832091720275
:100CD0002223F9F020919502203258F021E030E0F3
:100CE000FC013383228390E080E00F90DF91CF916D
:100CF000089580917302E82FF0E0EC58FD4F998140
:100D000090838F5F809373028093950281E090E0DF
:100D1000ECCF61E0CE0101960E947704F7CF90E01E
:100D200080E008958F929F92AF92BF92CF92DF9210
:100D3000EF92FF921F93CF93DF93EC0188810E9483
:100D4000CC007C0111E0892B09F410E00E943F04E3
:100D50002A81211729F06B837C838D839E831A83DC
:100D60008B809C80AD80BE809B01AC012819390925
:100D70004A095B0949015A013FE183169104A10424
:100D8000B10460F02981211749F0198321E0EF288F
:100D900089F42B876F83788789879A87DF91CF9132
:100DA0001F91FF90EF90DF90CF90BF90AF909F90FA
:100DB0008F9008952C87CF80D884E984FA846C19A9
:100DC0007D098E099F09603D77408105910510F0EE
:100DD0002E87E4CF2D87E2CF1F93CF93DF93DC01E3
:100DE0001496ED91FC91E417F50710F490E01FC004
:100DF000122FEA01FC0181819281208131E0309340
:100E00007202209394021092730210929502DC01F8
:100E1000ED91FC910280F381E02D0995C817D90767
:100E200029F7812F0E94F40491E08111DFCF892FEF
:100E3000DF91CF911F9108952F923F924F925F9231
:100E40006F927F928F929F92AF92BF92CF92DF92DA
:100E5000EF92FF920F931F93CF93DF935C011B01DF
:100E60006A01F12CE12CD50114968D919C9186019B
:100E70000E191F098017910708F48C01F501D08124
:100E80000E94E8032B013C0180916C02811172C029
:100E9000C02F013208F0C0E2F1E0F0936C0221E0D3
:100EA000C601801B910BE816F90608F420E0209398
:100EB0006B028FEF80936A02109269028C0F80930D
:100EC0006802A1E0A093470280914702DD0FD82B72
:100ED000D093470280914602813009F090C0109271
:100EE00046020E94E8032B013C0180914702809357
:100EF000BB0080916E0290916F02A0917002B09140
:100F00007102892B8A2B8B2BA1F00E94E803209180
:100F10006E0230916F02409170025091710264191B
:100F2000750986099709261737074807590708F4EE
:100F300042C08091BC0083FDD8CFB5ECB093BC001B
:100F40000E94E8032B013C0180916C02813009F47E
:100F50005AC0809169028C1710F4C0916902A8E40C
:100F6000B2E0E6E2F2E080E08C1751F19D919193BE
:100F70008F5FFACF80916E0290916F02A091700204
:100F8000B0917102892B8A2B8B2B09F47DCF0E94A3
:100F9000E80320916E0230916F02409170025091EF
:100FA00071026419750986099709261737074807DA
:100FB000590708F069CF80916D020E94D304C0E008
:100FC00010922502C0932402C017110609F057C0E1
:100FD00041018E0C9F1CE401CE01881999098017EC
:100FE000910798F5D50111968D919C91DC01ED91B9
:100FF000FC910284F385E02D09958993EDCFE5EE10
:10100000E093BC009DCF80916E0290916F02A09101
:101010007002B0917102892B8A2B8B2B09F494CF2B
:101020000E94E80320916E0230916F02409170029D
:1010300050917102641975098609970926173707B7
:101040004807590708F080CFB6CFE00EF11EEC1428
:10105000FD0408F408CF81E0DF91CF911F910F913B
:10106000FF90EF90DF90CF90BF90AF909F908F90C8
:101070007F906F905F904F903F902F90089580E009
:10108000EBCF1F93CF93DF93CDB7DEB72B970FB680
:10109000F894DEBF0FBECDBFFC011A8219823581E4
:1010A0002AE0832F622F0E943A13982F880F890F0E
:1010B000880F830F8A833481832F0E943A13982FDD
:1010C000880F890F880F830F8B833381832F0E94B2
:1010D0003A13982F880F890F880F830F8C83128102
:1010E00031812081422F50E0612F70E0E3ECF0E08D
:1010F00081E0831730F49491690F711D8F5F3196F1
:10110000F8CF333028F0822F837011F46F5F7F4F58
:10111000EDE6F1E04E9FC0014F9F900D5E9F900D58
:10112000112405964D5F5F4F569547955695479507
:10113000840F951F860F971F67E070E00E9446138B
:10114000811101C087E08D834AE0812F642F0E94C6
:101150003A13982F880F890F880F810F8E83832F62
:101160000E943A13982F880F890F880F830F8F835F
:10117000822F0E943A13982F880F890F880F820FB1
:10118000888721E048E050E0BE016F5F7F4F80918B
:101190002202909123020E94EC061FE01B8721E0AF
:1011A00041E050E0BE01655F7F4F80912202909147
:1011B00023020E94EC0641E050E0BE01675F7F4FD2
:1011C00080912202909123020E941C078985198731
:1011D0008F778A8721E042E050E0BE01675F7F4F52
:1011E00080912202909123020E94EC062B960FB66A
:1011F000F894DEBF0FBECDBFDF91CF911F91089550
:10120000EF92FF920F931F93CF93DF9300D000D004
:1012100000D01F92CDB7DEB78C011982E090220278
:10122000F090230220E041E050E0BE016F5F7F4F6D
:10123000C7010E94EC06882341F047E050E0BE0160
:101240006F5F7F4FC7010E941C07E981EF77FA812A
:10125000FB805D814E814F778F81282F30E094E0B5
:10126000359527959A95E1F7922F990F990F291B9C
:10127000220F280FD8012C93842F90E024E095951D
:1012800087952A95E1F7982F990F990F891B880F59
:10129000840F11968C931197652F70E034E075954B
:1012A00067953A95E1F7862F880F880F681B660FC0
:1012B000650F12966C9312974F2D50E064E0559590
:1012C00047956A95E1F7842F880F880F481B440FD4
:1012D0004F0D13964C9313972F2F30E074E03595F4
:1012E00027957A95E1F7822F880F880F281B220F08
:1012F0002F0F14962C9314978E2F90E0F4E0959571
:101300008795FA95E1F7982F990F990F891B880F08
:101310008E0F15968C93C80127960FB6F894DEBFF2
:101320000FBECDBFDF91CF911F910F91FF90EF9036
:101330000895CF93DF93CDB7DEB72C970FB6F8940F
:10134000DEBF0FBECDBFCE0107960E9400098B8580
:1013500090E001966CE370E00E945A139A8529850B
:1013600038854F8149833A832B839C838D831E82EA
:10137000CE0101960E9441082C960FB6F894DEBF6C
:101380000FBECDBFDF91CF91089585ED8093BC0056
:1013900080916E0290916F02A0917002B0917102E3
:1013A0000796A11DB11D23E0B695A7959795879542
:1013B0002A95D1F72091BC0024FD03C010926C0245
:1013C000089540916E0250916F0260917002709189
:1013D0007102452B462B472B69F30097A105B105F8
:1013E00041F02AE22A95F1F700C00197A109B1095D
:1013F000E1CF80916D020C94D3041F920F920FB62F
:101400000F9211242F933F938F939F93AF93BF938A
:101410008091050290910602A0910702B091080206
:101420003091040223E0230F2D3758F50196A11DBA
:10143000B11D209304028093050290930602A093AD
:101440000702B09308028091090290910A02A091CC
:101450000B02B0910C020196A11DB11D80930902EF
:1014600090930A02A0930B02B0930C02BF91AF912C
:101470009F918F913F912F910F900FBE0F901F90D2
:10148000189526E8230F0296A11DB11DD2CF1F92F9
:101490000F920FB60F9211242F933F934F935F93A8
:1014A0006F937F938F939F93AF93BF93EF93FF932C
:1014B0008091160290911702A0911802B091190222
:1014C000892B8A2B8B2BD1F190911102E091120282
:1014D000F091130280818927808380911602909178
:1014E0001702A0911802B0911902181619061A06CF
:1014F0001B069CF48091160290911702A09118028D
:10150000B09119020197A109B10980931602909335
:101510001702A0931802B0931902FF91EF91BF91A7
:10152000AF919F918F917F916F915F914F913F917B
:101530002F910F900FBE0F901F901895809145012D
:101540000E944B04EACF1F920F920FB60F92112404
:101550002F933F934F935F936F937F938F939F93BB
:10156000AF93BF93EF93FF938091B900887F80364C
:1015700009F44AC0F0F5883209F4A7C018F58031A3
:1015800009F49BC0B8F4882309F4F9C0883009F441
:1015900094C0FF91EF91BF91AF919F918F917F91F7
:1015A0006F915F914F913F912F910F900FBE0F90D0
:1015B0001F901895883109F488C0803251F78093C4
:1015C0006A0214C0803409F49DC040F48033B9F33A
:1015D0008833F9F680936A0285ECB0C0803509F44F
:1015E00085C0883509F496C0883499F60E94C509EB
:1015F000D0CF883909F48CC038F5883729F050F4F9
:10160000883611F0803729F683E080936C021092BF
:10161000D50157C0883809F47BC0803919F080386B
:1016200009F0B7CF8091D501803208F071C0E09108
:10163000D50181E08E0F8093D5018091BB00F0E051
:10164000EB54FE4F80833DC0803B39F0E0F4803A9C
:1016500009F479C0883A09F09CCF84E080936C0249
:101660001092B4011092B301E0910F02F0911002B8
:1016700009958091B30181110FC081E08093B3017E
:101680001092930109C0803C09F4A6CF883C09F46C
:10169000A3CF883B09F07DCFE091B40181E08E0FAC
:1016A0008093B401F0E0ED56FE4F80818093BB0043
:1016B0009091B4018091B30129C080914702809339
:1016C000BB0085EC8093BC0064CF9091690280914F
:1016D0006802981758F5E091690281E08E0F8093B7
:1016E0006902F0E0E85BFD4F8081E9CFE09169029B
:1016F00081E08E0F809369028091BB00F0E0E85B8F
:10170000FD4F808390916902809168029817C8F21A
:1017100085E8D8CFE091690281E08E0F809369025D
:101720008091BB00F0E0E85BFD4F808380916B020D
:1017300081115CCF81E08093460284EA8093BC00F3
:1017400010926C0226CF85EC8093BC0010926C0244
:101750008091D501803230F4E091D501F0E0EB5476
:10176000FE4F10826091D50170E0E0910D02F09182
:101770000E0285EB91E009951092D5010ACF1092E7
:101780006A0234CFCF93DF93E6E9F2E0138212824C
:1017900088EE93E0A0E0B0E084839583A683B783CE
:1017A00084E891E091838083C2EAD2E084E0888378
:1017B00082E0898384E690E09C838B8360E084E010
:1017C0000E94230160E089810E94230160E08881FA
:1017D0000E94F50060E08981DF91CF910C94F500C3
:1017E000CF93DF93CDB7DEB7C454D1090FB6F894C9
:1017F000DEBF0FBECDBF789484B5826084BD84B552
:10180000816084BD85B5826085BD85B5816085BDFB
:1018100080916E00816080936E00109281008091B3
:10182000810082608093810080918100816080933B
:101830008100809180008160809380008091B10060
:1018400084608093B1008091B00081608093B0008B
:1018500080917A00846080937A0080917A0082601F
:1018600080937A0080917A00816080937A008091E1
:101870007A00806880937A001092C1008BE0809398
:10188000A4028091220290912302009711F00E94FD
:10189000511486E090E00E94B5138C0188E6D801CF
:1018A0008C9386E992E012969C938E9311971396EF
:1018B0001C92139780E290E015969C938E93149758
:1018C00010932302009322020E94BC0481E0F801DD
:1018D0008383C8010E94E4050E94BC048E010F5F4F
:1018E0001F4FC8010E940009BB80CA80D12C809183
:1018F0004C0190914D01A0914E01B0914F018D8707
:101900009E87AF87B88B40E064E0CE010D960E94C1
:10191000D3016CED75E080E090E00E940D0440E0A2
:1019200061E083E091E00E94D30141E061E082E068
:1019300091E00E94D30142E061E081E091E00E94E9
:10194000D30143E061E086ED91E00E94D30160EDB8
:1019500077E080E090E00E940D0440E061E080E0EC
:1019600091E00E94D30141E061E081E091E00E94BA
:10197000D30142E061E082E091E00E94D30143E0C4
:1019800061E083E091E00E94D30160ED77E080E0C8
:1019900090E00E940D04209150013091510140913E
:1019A0005201509153012BA33CA34DA35EA32F835F
:1019B000388749875A87AE01495F5F4F25965FAFE9
:1019C0004EAF259740E064E0CE0107960E94D30118
:1019D00060ED77E080E090E00E940D0441E060E47B
:1019E000C60154E6B59E800D911D11240E94060289
:1019F00068E873E180E090E00E940D040E948A0292
:101A000068EC70E080E090E00E940D04898190E035
:101A100040E060E08053984F0E94060260ED77E05E
:101A200080E090E00E940D040E948A0264E670E06B
:101A300080E090E00E940D0462E088E00E942301B3
:101A400062E089E00E94230162E08AE00E942301B3
:101A500062E08BE00E94230161E08DE00E9423019F
:101A60000E943F046093F0017093F1018093F201B2
:101A70009093F3010E943F046093EC017093ED0199
:101A80008093EE019093EF01809054019090550166
:101A9000A0905601B09057018FA298A6A9A6BAA609
:101AA000A0905801B0905901C0905A01D0905B01AC
:101AB000ABA6BCA6CDA6DEA6C0905C01D0905D0111
:101AC000E0905E01F0905F01CFA6D8AAE9AAFAAA39
:101AD0008090600190906101A0906201B0906301DC
:101AE0008BAA9CAAADAABEAAA0906401B090650181
:101AF000C0906601D0906701AFAAB8AEC9AEDAAEA9
:101B0000C0906801D0906901E0906A01F0906B018B
:101B1000CBAEDCAEEDAEFEAE80906C0190906D0170
:101B2000A0906E01B0906F0123968CAE9DAEAEAECC
:101B3000BFAE239784E6282E312C9CE3492E512CEE
:101B4000612C712C109244011092430110924201B9
:101B5000109241011092150110921401109213017C
:101B6000109212011092240110922301109222016E
:101B7000109221011092350110923401109233011C
:101B80001092320186E391E00E94920687E091E094
:101B90000E94920686E191E00E94920687E291E01F
:101BA0000E949206CE0149960E9400098D8D8111F6
:101BB00014C08E8D90E0009709F00EC5809103024D
:101BC00081110BC048EC50E060E070E088EE93E0DB
:101BD0000E94A10281E08093030280910102909112
:101BE0000202892B69F580914401882349F1809193
:101BF0000002811125C0C8010E9400098B8190E07C
:101C00009093DE018093DD018A8190E09093DC0166
:101C10008093DB01898190E08053984FB1010E944D
:101C200046137093DA016093D9019093D8018093A1
:101C3000D70181E0809300021092E0011092DF0151
:101C400080910002882309F4DBC08091DF0190912C
:101C5000E001009709F050C0A090DD01B090DE01D6
:101C6000C090DB01D090DC0124E62A9DC0012B9DB1
:101C7000900D112441E060E48C0D9D1D0E94060230
:101C800080911401882351F0C5016FE170E00E943A
:101C90005A1301969093DE018093DD018091230118
:101CA000882351F0C6016CE070E00E945A1301963F
:101CB0009093DC018093DB01809143018823A1F0A4
:101CC00046E950E060E070E08CED95E00E94A102F2
:101CD00081E090E09093E0018093DF0168EE73E093
:101CE00080E090E00E940D0480E090E0892B09F4F0
:101CF00029CF0E9400001ECF0197B1F7A090D90113
:101D0000B090DA01C090D701D090D80124E62A9D86
:101D1000C0012B9D900D112441E060E48C0D9D1DB0
:101D20000E94060280911401882361F0C50101968A
:101D300023E6A216B10414F084E190E09093DA0156
:101D40008093D90180912301882361F033E6C31683
:101D5000D1040CF052C04FEFC41AD40AD092D8016B
:101D6000C092D70180913401882309F4BDCF8091BE
:101D7000D9019091DA0124E6289F6001299FD00CB7
:101D800011248091D7019091D801C80ED91ECE019F
:101D900007960E940009BC84CE010D960E9400099E
:101DA000A988CE0143960E9400098E899091DD0199
:101DB0002091DB0150EDC51657E0D50620F0A0EDCF
:101DC000CA1AA7E0DA0AC9822A839B838C83AD8270
:101DD000BE82C8010E94410846E950E060E070E020
:101DE00088E097E00E94A10268EE73E080E090E056
:101DF0000E940D041092000277CFD12CC12CAECFDF
:101E000080913501882309F442C0D090260181E0F9
:101E1000D826D09226018BAC9CACADACBEAC8F82E8
:101E20009886A986BA8623968CAC9DACAEACBFAC26
:101E3000239789829A82AB82BC82C801D11006C0E6
:101E400024968FAD249725969FAD259740E064E0BA
:101E50000E94D30148EC50E060E070E088EE93E02F
:101E60000E94A10264EF71E080E090E00E940D0406
:101E7000D1100DC01092FC011092FD011092FE01D4
:101E80001092FF0181E0809325010E948A028091D7
:101E90002601882309F428CF0E943F044B015C01EE
:101EA00080914301882309F449C08091E50188238A
:101EB00009F465C18091E1019091E201A091E301F3
:101EC000B091E40175016401C81AD90AEA0AFB0A53
:101ED000D701C601843F9140A105B10508F04FC16B
:101EE0001092E5018091EB0191E089278093EB014D
:101EF000CBA8DCA8EDA8FEA8CF82D886E986FA8612
:101F0000CFA8D8ACE9ACFAACC982DA82EB82FC8209
:101F1000882309F42DC1C80140E064E00E94D30188
:101F200048EC50E060E070E08CED95E00E94A1028A
:101F300064EF71E080E090E00E940D048091E50183
:101F4000882321F18091E1019091E201A091E301C8
:101F5000B091E401881A990AAA0ABB0A24EF8216F2
:101F600021E09206A104B10488F0809101029091D1
:101F700002021092E501892B09F00DC181E090E089
:101F80009093020280930102809325012091010227
:101F9000309102022115310509F00EC10E943F0463
:101FA0004B015C0180911401882309F455C0809194
:101FB000EA01882309F4F4C08091E6019091E701D9
:101FC000A091E801B091E90175016401C81AD90A2C
:101FD000EA0AFB0AD701C601843F9140A105B10579
:101FE00008F0DEC01092EA01C8010E9400098B814E
:101FF000CA80D12C34E6839FC00CD11C11248BA144
:102000009CA1ADA1BEA18F839887A987BA8740E024
:1020100064E0CE0107960E94D3016CED75E080E08C
:1020200090E00E940D0441E060E4C6010E940602B7
:1020300060ED77E080E090E00E940D0448EC50E015
:1020400060E070E080EB94E00E94A10268EE73E033
:1020500080E090E00E940D048091EA01882399F1CC
:102060008091E6019091E701A091E801B091E9012A
:10207000881A990AAA0ABB0A94EF891691E0990670
:10208000A104B10400F11092EA0180910102909143
:102090000202892BC1F4CE0107960E9400095F81DC
:1020A000488539852B858A8590E0019659834A8336
:1020B0003B8368E170E00E945A138C832D831E825B
:1020C000C8010E9441088091230181110E94990951
:1020D000C8010E940009CD802C2D30E08C8190E059
:1020E0004091EB01442341F06CE070E00E945A13F0
:1020F000009711F48CE090E044E6489F6001499F0E
:10210000D00C1124C20ED31E0E943F048090EC011B
:102110009090ED01A090EE01B090EF01AB01BC01F9
:10212000481959096A097B09483E53406105710500
:10213000A0F020910401D501C40188519C4FAF4FFC
:10214000BF4F8093EC019093ED01A093EE01B0930B
:10215000EF0181E0822780930401809104018823AC
:1021600009F4ECC160E441E0C6010E940602BCCD66
:1021700024968FAD249725969FAD2597CDCE81E0EF
:102180008093E5018092E1019092E201A092E30147
:10219000B092E401D3CE1092020210920102F6CE68
:1021A00081E08093EA018092E6019092E701A0929B
:1021B000E801B092E90150CF80911401882399F091
:1021C0008091FC019091FD01A091FE01B091FF0171
:1021D000CC96A11DB11D8093FC019093FD01A093AD
:1021E000FE01B093FF0180912301882309F44CC0C4
:1021F0002130310509F0B8C10E943F044B015C0158
:102200008091F8019091F901A091FA01B091FB0140
:1022100075016401C81AD90AEA0AFB0AD701C60186
:10222000843F9140A105B10508F08AC1CFA4D8A888
:10223000E9A8FAA8C982DA82EB82FC8240E064E075
:10224000C8010E94D30148EC50E060E070E080EBF0
:1022500094E00E94A10264EF71E080E090E00E94AF
:102260000D041092FC011092FD011092FE011092DB
:10227000FF0181E0809325018092F8019092F9019D
:10228000A092FA01B092FB0180913401882309F4F5
:1022900056C0D09025010E943F044B015C01809103
:1022A000F4019091F501A091F601B091F701A5011B
:1022B0009401281B390B4A0B5B0BDA01C901843FDF
:1022C0009140A105B10508F054C18091050190919C
:1022D000060121E030E08130910511F430E020E08A
:1022E0003093060120930501CFA0D8A4E9A4FAA455
:1022F000CF82D886E986FA86CBA4DCA4EDA4FEA41E
:10230000C982DA82EB82FC82019709F030C12496FF
:102310008FAD249725969FAD259740E064E00E94FD
:10232000D30164EF71E080E090E00E940D048092A0
:10233000F4019092F501A092F601B092F70180911C
:1023400025018090FC019090FD01A090FE01B090CD
:10235000FF01811161C10E943F042091F001309181
:10236000F1014091F2015091F3012F8F38A349A35D
:102370005AA3AB01BC01CF8CD8A0E9A0FAA04C199C
:102380005D096E097F09483E53406105710508F4F7
:1023900029C1D701C60188519C4FAF4FBF4F8093D1
:1023A000F0019093F101A093F201B093F3018091B9
:1023B000050190910601019709F0EAC0181419046B
:1023C0001A041B040CF00EC131E0831A9108A10815
:1023D000B1088092FC019092FD01A092FE01B092A2
:1023E000FF0189288A288B2809F0FCC081E08093AE
:1023F00025010E943F0440E050E0BA0188EE93E0DE
:102400000E94A10264EF71E080E090E00E940D0460
:1024100040E050E0BA018CED95E00E94A10264EF2B
:1024200071E080E090E00E940D0440E050E0BA01CD
:1024300088EE93E00E94A10264EF71E080E090E0FA
:102440000E940D048DE00E944B0460E971E080E081
:1024500090E00E940D0440E050E0BA0188EE93E065
:102460000E94A10264EF71E080E090E00E940D0400
:1024700040E050E0BA018CED95E00E94A10264EFCB
:1024800071E080E090E00E940D0440E050E0BA016D
:1024900088EE93E00E94A10264EF71E080E090E09A
:1024A0000E940D048DE00E944B046091FC0170912C
:1024B000FD018091FE019091FF0197FF03C060E054
:1024C00070E0CB01A30192010E949013E4E6E29F29
:1024D0006001E39FD00C1124C60ED71E8091250108
:1024E000882309F43FCEF09004010E943F048090BD
:1024F000EC019090ED01A090EE01B090EF01AB01E6
:10250000BC01481959096A097B09483E53406105D5
:10251000710590F0D501C40188519C4FAF4FBF4F5A
:102520008093EC019093ED01A093EE01B093EF0145
:1025300081E08F2580930401F11014CE60E013CE6A
:102540008091FC019091FD01A091FE01B091FF01ED
:102550000196A11DB11D8093FC019093FD01A093F4
:10256000FE01B093FF0188CE0E9499098DCEC8016B
:10257000D4CE81E0D826D09225010E943F046093FA
:10258000F0017093F1018093F2019093F301CFCEAB
:10259000C501B4016F5F7F4F8F4F9F4F6093FC0168
:1025A0007093FD018093FE019093FF012CE231E0D6
:1025B00040E050E00E949013672B682B692B91F448
:1025C00040E050E0BA0180EB94E00E94A1026CE28E
:1025D00071E080E090E064CF0B970CF4FECA10929B
:1025E0000302FBCA6091FC017091FD018091FE0124
:1025F0009091FF0197FF03C060E070E0CB01A30161
:1026000092010E949013E4E6E29F6001E39FD00CE8
:102610001124C60ED71EA6CDC501B40197FF03C075
:1026200060E070E0CB01A30192010E949013E4E608
:10263000E29F6001E39FD00C1124C60ED71E53CF3A
:102640000E942B13A59F900DB49F900DA49F800D09
:10265000911D11240895A29FB001B39FC001A39FB3
:10266000700D811D1124911DB29F700D811D1124CB
:10267000911D0895991B79E004C0991F961708F0E1
:10268000961B881F7A95C9F780950895AA1BBB1BD6
:1026900051E107C0AA1FBB1FA617B70710F0A61B62
:1026A000B70B881F991F5A95A9F780959095BC0183
:1026B000CD01089597FB072E16F4009407D077FDFF
:1026C00009D00E94461307FC05D03EF490958195F1
:1026D0009F4F0895709561957F4F0895A1E21A2E3E
:1026E000AA1BBB1BFD010DC0AA1FBB1FEE1FFF1FB6
:1026F000A217B307E407F50720F0A21BB30BE40B06
:10270000F50B661F771F881F991F1A9469F760954C
:102710007095809590959B01AC01BD01CF01089506
:10272000052E97FB1EF400940E94A71357FD07D0B7
:102730000E946E1307FC03D04EF40C94A71350951F
:102740004095309521953F4F4F4F5F4F089590959D
:102750008095709561957F4F8F4F9F4F0895EE0F35
:10276000FF1F0590F491E02D09940F931F93CF93D1
:10277000DF938230910510F482E090E0E091A902AD
:10278000F091AA0230E020E0B0E0A0E0309799F4A8
:102790002115310509F44AC0281B390B24303105B5
:1027A000D8F58A819B816115710589F1FB019383BD
:1027B0008283FE0111C0408151810281138148173B
:1027C0005907E0F04817590799F4109761F01296ED
:1027D0000C93129713961C933296CF01DF91CF91F1
:1027E0001F910F9108950093A9021093AA02F4CFAC
:1027F0002115310551F04217530738F0A901DB01CB
:102800009A01BD01DF01F801C1CFEF01F9CF90932B
:10281000AA028093A902CDCFFE01E20FF31F81939C
:1028200091932250310939832883D7CF2091A70271
:102830003091A802232B41F42091480130914901A5
:102840003093A8022093A7022091460130914701BE
:102850002115310541F42DB73EB740914A01509101
:102860004B01241B350BE091A702F091A802E2175F
:10287000F307A0F42E1B3F0B2817390778F0AC01A3
:102880004E5F5F4F2417350748F04E0F5F1F509380
:10289000A8024093A702819391939FCFF0E0E0E0DC
:1028A0009CCFCF93DF930097E9F0FC01329713821E
:1028B0001282A091A902B091AA02ED0130E020E0BD
:1028C0001097A1F420813181820F931F2091A702DC
:1028D0003091A8022817390709F061C0F093A802C7
:1028E000E093A702DF91CF910895EA01CE17DF07A9
:1028F000E8F54A815B819E0141155105B1F7E90177
:10290000FB83EA8349915991C40FD51FEC17FD074A
:1029100061F4808191810296840F951FE90199836A
:102920008883828193819B838A83F0E0E0E0129622
:102930008D919C9113970097B9F52D913C9111972A
:10294000CD010296820F931F2091A7023091A80219
:102950002817390739F6309751F51092AA021092CC
:10296000A902B093A802A093A702BCCFD383C283CD
:1029700040815181840F951FC817D90761F44E5FBC
:102980005F4F88819981480F591F518340838A8105
:102990009B81938382832115310509F0B0CFF09399
:1029A000AA02E093A9029ECFFD01DC01C0CF1382F1
:0829B0001282D7CFF894FFCF8B
:1029B8000E3F793801010009010100000000000004
:1029C8000000000000000A010100000000000000F3
:1029D800000000000001010B0101000000000000E0
:1029E80000000000000008010100000000000000D5
:1029F8000000000000FF0000AB028000FFFFFFFFA7
:102A08005E5F787B3E73000000005E37506D780093
:102A18005B667600065B76003F7171003F540000EC
:102A28003F065B4F666D7D077F6F777C395E7971F6
:102A380000000000600633068F0609062C061906FA
:022A48000A067C
:00000001FF
